:100000000C942A000C9434000C9434000C943400AA
:100010000C9434000C9434000C9434000C94340090
:100020000C9434000C9434000C9434000C94340080
:100030000C9434000C9434000C9434000C94340070
:100040000C9434000C9434000C9434000C94340060
:100050000C94340011241FBECFE5D4E0DEBFCDBF29
:100060000E9436000C944C000C9400008FEF84BB6F
:1000700015BA8AB3807F8ABB8BB38F608BBBB09974
:10008000FECF9BB38BB3990F881F8827881F892BBE
:0C0090008BBBB09BFECFF3CFF894FFCFEA
:00000001FF
