:100000000C942A000C9434000C9434000C943400AA
:100010000C9434000C9434000C9434000C94340090
:100020000C9434000C9434000C9434000C94340080
:100030000C9434000C9434000C9434000C94340070
:100040000C9434000C9434000C9434000C94340060
:100050000C94340011241FBECFE5D4E0DEBFCDBF29
:100060000E9436000C9486000C9400008FEF84BB35
:100070001ABA8FE08BBB40E060E081E00E944D0047
:1000800099B389B340E1949F900111248F70822B22
:1000900080950E947F0085BBF3CF97B39F7A97BB73
:1000A00098B3906598BB71E07EB91DB89DB1E82FFB
:1000B000E170F0E084E0EE0FFF1F8A95E1F7E92B95
:1000C000EDB98DB1262F217030E095E0220F331F5E
:1000D0009A95E1F7282B2DB98DB1942F937024E0D8
:1000E000929FA0011124482B4DB96E9A87B3806B63
:1000F00087BB8DB1829581708727819508958FB9CF
:10010000779902C00000FCCF8FB10895F894FFCF1B
:00000001FF
