:100000000C942A000C9434000C9434000C943400AA
:100010000C9434000C9434000C9434000C94340090
:100020000C9434000C9434000C9434000C94340080
:100030000C9434000C9434000C9434000C94340070
:100040000C9434000C9434000C9434000C94340060
:100050000C94340011241FBECFE5D4E0DEBFCDBF29
:100060000E9436000C9447000C9400008FEF84BB74
:1000700015BA8B98939A88E085BF0AB607FEFDCF24
:1000800085B38F5F85BB8AB780688ABFF6CFF89447
:02009000FFCFA0
:00000001FF
