:100000000C942A000C9434000C9434000C943400AA
:100010000C9434000C9434000C9434000C94340090
:100020000C9434000C9434000C9434000C94340080
:100030000C9434000C9434000C9434000C94340070
:100040000C9434000C9434000C9434000C94340060
:100050000C94340011241FBECFE5D4E0DEBFCDBF29
:100060000E9436000C9479000C9400008FEF84BB42
:1000700015BA1ABA8FE08BBB85B3809585BBC8993A
:100080000AC02FEF8EE994E2215080409040E1F7C2
:1000900000C00000F1CFC9990AC02FE387E79BE1B8
:1000A000215080409040E1F700C00000E5CFCA99A0
:1000B0000AC02FE78FE492E1215080409040E1F7A1
:1000C00000C00000D9CFCB990AC02FEB87E299E09E
:1000D000215080409040E1F700C00000CDCF2FE7D5
:1000E0008DE89BE5215080409040E1F700C0000082
:0600F000C3CFF894FFCF1E
:00000001FF
