:100000000C942A000C9434000C9434000C943400AA
:100010000C9434000C9434000C9434000C94340090
:100020000C9434000C9434000C9434000C94340080
:100030000C9434000C9434000C9434000C94340070
:100040000C9434000C9434000C9434000C94340060
:100050000C94340011241FBECFE5D4E0DEBFCDBF29
:100060000E9436000C9457000C9400008FEF84BB64
:1000700015BA8AB3807F8ABB8BB38F608BBB3FE09E
:1000800020EF89B390E08095909583709927019730
:1000900011F425BBF6CF89B390E0809590958370DD
:1000A0009927029711F435BBECCF15BAEACFF89433
:0200B000FFCF80
:00000001FF
