:100000000C942A000C9434000C9434000C943400AA
:100010000C9434000C9434000C9434000C94340090
:100020000C9434000C9434000C9434000C94340080
:100030000C9434000C9434000C9434000C94340070
:100040000C9434000C9434000C9434000C94340060
:100050000C94340011241FBECFE5D4E0DEBFCDBF29
:100060000E9481000C94B2000C94000080E687B9D5
:1000700086E086B9089597B1987F8770892B87B9F4
:10008000089586B1806C86B9369B03C0000036990E
:10009000FDCF84B125B190E0922B0895CF92DF92ED
:1000A000EF92FF92CF93DF93D82F8823B9F0C0E06F
:1000B000C12CD12C76010E9441000024880F991F89
:1000C000001C880F991F001C892F902DC80ED91E67
:1000D000E11CF11CCF5FDC13EECF03C0C12CD12C8F
:1000E00076012D2F30E040E050E0C701B6010E94BC
:1000F0009000C901DF91CF91FF90EF90DF90CF90FA
:1001000008958FEF84BB0E94360085E00E943B007B
:100110000E94410095BB8AE00E944E0095BBF8CF3B
:10012000A1E21A2EAA1BBB1BFD010DC0AA1FBB1FFB
:10013000EE1FFF1FA217B307E407F50720F0A21B6D
:10014000B30BE40BF50B661F771F881F991F1A94DA
:1001500069F760957095809590959B01AC01BD0104
:08016000CF010895F894FFCFD0
:00000001FF
