:100000000C942A000C9434000C9434000C943400AA
:100010000C9434000C9434000C9434000C94340090
:100020000C9434000C9434000C9434000C94340080
:100030000C9434000C9434000C9434000C94340070
:100040000C9434000C9434000C9434000C94340060
:100050000C94340011241FBECFE5D4E0DEBFCDBF29
:100060000E9436000C9446000C9400008FEF84BB75
:1000700015BA85B3809585BB2FEF8EE994E22150A8
:1000800080409040E1F700C00000F3CFF894FFCF2C
:00000001FF
