:100000000C942A000C943C000C943C000C943C0092
:100010000C943C000C943C000C943C000C943C0070
:100020000C943C000C943C000C943C000C943C0060
:100030000C943C000C943C000C943C000C943C0050
:100040000C943C000C943C000C943C000C943E003E
:100050000C943C0011241FBECFE5D4E0DEBFCDBF21
:1000600020E0A0E6B0E001C01D92A536B207E1F79E
:100070000E9483000C949E000C9400001F920F922B
:100080000FB60F9211242F938F939F93809160004E
:10009000909161000196909361008093600080913F
:1000A0006000909161008031974228F18091620058
:1000B0008F5F80936200809162008C33C0F08091EA
:1000C00063008F5F80936300809163008C3368F0DE
:1000D000809164008F5F8093640080916400883118
:1000E00010F010926400109263001092620010925F
:1000F0006100109260009F918F912F910F900FBE21
:100100000F901F9018958FEF84BB15BA8AB3807F2C
:100110008ABB8BB38F608BBB8AE083BF89B7826059
:1001200089BF789486E98CBF9091630080916200CA
:10013000990F990F8170892B85BBF6CFF894FFCF6B
:00000001FF
