:100000000C942A000C9434000C9434000C943400AA
:100010000C9434000C9434000C9434000C94340090
:100020000C9434000C9434000C9434000C94340080
:100030000C9434000C9434000C9434000C94340070
:100040000C9434000C9434000C9434000C94340060
:100050000C94340011241FBECFE5D4E0DEBFCDBF29
:100060000E9436000C948E000C9400008FEF84BB2D
:100070001ABA8FE08BBB20E040E060E081E00E9494
:100080004E0099B389B340E1949F900111248F7081
:10009000822B80950E94860085BBF3CF97B39F7A11
:1000A00097BB98B3906598BB31E03EB91DB89DB140
:1000B000A82FA170B0E0A295B295B07FBA27A07F1B
:1000C000BA27A92BADB98DB1E62FE170F0E0EE0FA4
:1000D000FF1FE295F295F07FFE27E07FFE27E82BD9
:1000E000EDB99DB12270220F220F292B4470440FCD
:1000F000440F440F422B4DB96E9A87B3806B87BB78
:100100008DB1829581708327819508958FB97799F4
:1001100003C00000779BFDCF8FB10895F894FFCF07
:00000001FF
