:100000000C942A000C9434000C9434000C943400AA
:100010000C9434000C9434000C9434000C94340090
:100020000C9434000C9434000C9434000C94340080
:100030000C9434000C9434000C9434000C94340070
:100040000C9434000C9434000C9434000C94340060
:100050000C94340011241FBECFE5D4E0DEBFCDBF29
:100060000E9436000C9488000C9400008FEF84BB33
:100070001ABA8FE08BBB40E060E081E00E944D0047
:1000800099B389B340E1949F900111248F70822B22
:1000900080950E94800085BBF3CF97B39F7A97BB72
:1000A00098B3906598BB91E09EB91DB85DB1E82FFB
:1000B000E170F0E0E295F295F07FFE27E07FFE2709
:1000C000E52BEDB98DB1262F217030E0220F331FC3
:1000D00022953295307F3227207F3227282B2DB969
:1000E0008DB14370440F440F482B4DB96E9A87B3BE
:1000F000806B87BB8DB1829581708927819508952A
:100100008FB9779903C00000779BFDCF8FB1089519
:04011000F894FFCF91
:00000001FF
