:100000000C94B1000C94CE000C94CE000C94CE0055
:100010000C94CE000C94CE000C94CE000C94CE0028
:100020000C94CE000C94CE000C94CE000C94CE0018
:100030000C94CE000C94CE000C94CE000C94CE0008
:100040000C94CE000C94CE000C94CE000C94CE00F8
:100050000C94CE006E616E00696E660000407A10EE
:10006000F35A00A0724E18090010A5D4E80000E869
:100070007648170000E40B54020000CA9A3B0000C7
:1000800000E1F505000080969800000040420F0056
:100090000000A08601000000102700000000E80317
:1000A000000000006400000000000A0000000000E2
:1000B0000100000000002C76D888DC674F0823DFA1
:1000C000C1DFAE59E1B1B796E5E3E453C63AE65174
:1000D000997696E8E6C28426EB898C9B62ED407C9B
:1000E0006FFCEFBC9C9F40F2BAA56FA5F490055A37
:1000F0002AF75C936B6CF9676DC11BFCE0E40D475C
:10010000FEF520E6B500D0ED902E0300943577057E
:100110000080841E080000204E0A000000C80C3336
:100120003333330F986E12831141EF8D2114893BC5
:10013000E65516CFFEE6DB18D1844B381BF77C1D45
:10014000901DA4BBE424203284725E228100C9F198
:1001500024ECA1E53D276364696E6F707375785870
:100160005B0011241FBECFE5D4E0DEBFCDBF11E0A0
:10017000A0E6B0E0E0E0F5E102C005900D92A23308
:10018000B107D9F721E0A2E3B1E001C01D92A83385
:10019000B207E1F70E94D0000C947E0A0C94000094
:1001A000CF93DF93CDB7DEB72D970FB6F894DEBFB0
:1001B0000FBECDBF0E94AD0183E790E00E94FD0617
:1001C00080E690E09F938F931F9281E48F931F921C
:1001D0008BE78F9381E890E09F938F930E94E706CF
:1001E00082E48F9386EF8F938CED8F9389E28F93C8
:1001F0008AE990E09F938F930E94E7060FB6F894E8
:10020000DEBF0FBECDBF8BEA282E80E0382E2E0138
:100210009CE0490E511C93EC692E90E0792E07EC7E
:1002200010E02AEFE22E20E0F22ECE0101966C01C2
:1002300038E1A32E31E0B32E4DE1842E41E0942E1F
:100240003F922F920E94E7065F924F927F926F92A9
:100250000E942D070F900F900F900F900F900F900E
:100260000197B9F48C859D8545E0489F9001499F91
:10027000300D11243F932F939F938F931F930F93D0
:100280000E94E7060F900F900F900F900F900F9025
:100290000AC080913201909133010E94BE018BEE21
:1002A00090E00E94FD06FF92EF920E94E706DF9227
:1002B000CF92BF92AF920E942D070F900F900F9098
:1002C0000F900F900F90892B59F0DF92CF929F9251
:1002D0008F920E94E7060F900F900F900F900AC028
:1002E00080913201909133010E94BE018BEE90E02B
:1002F0000E94FD068FEF9EE924E28150904020404D
:10030000E1F700C000009CCFCF93C82F8A3019F4CA
:100310008DE00E9484015D9902C00000FCCFCCB941
:1003200080E090E0CF910895CF935F9BFECF5C99E2
:1003300004C05B9902C05A9B04C08CB180E090E07D
:100340000AC0CCB160913401709135018C2F0E94AC
:1003500084018C2F90E0CF910895599810BC8DE4C2
:1003600089B986E880BD88E18AB9E2E3F1E085E6F3
:1003700090E0938382839183808308950E9468062E
:1003800080913201909133010C946D06A0E1B0E0B0
:10039000ECECF1E00C9443057C011B016A01FC01CB
:1003A00017821682838181FF44C39E012F5F3F4FD6
:1003B0003901F7019381F10193FD859193FF8191BB
:1003C0001F01882309F431C3853239F493FD8591E7
:1003D00093FF81911F01853239F4B70190E00E94AB
:1003E000AB0656016501E5CF10E0512C912CFFE1E1
:1003F000F915D8F08B3279F038F4803279F0833205
:10040000A1F4F92DF0612EC08D3261F0803369F4D2
:10041000292D21602DC0392D3260932E892D8460C5
:10042000982E2AC0E92DE86015C097FC2DC020ED5C
:10043000280F2A3088F496FE06C03AE0139F200D5C
:100440001124122F19C08AE0589E200D1124522E1B
:10045000E92DE0629E2E10C08E3231F496FCE5C28A
:10046000F92DF0649F2E08C08C3621F4292D2068C8
:10047000922E02C0883641F4F10193FD859193FFDD
:1004800081911F018111B3CF9BEB980F933020F422
:10049000992D9061805E07C09BE9980F933008F01A
:1004A00066C1992D9F7E96FF16E09F73992E853623
:1004B00019F49064992E08C0863621F4392F3068DB
:1004C000932E02C01111115097FE07C01C3350F437
:1004D00044244394410E27E00BC0183038F027E045
:1004E00017E005C027E09CE3492E02C0212F412CD4
:1004F000560184E0A80EB11CF601608171818281F1
:100500009381042DA3010E947A056C01F981FC8777
:10051000F0FF02C0F3FF06C091FC06C092FE06C0C9
:1005200000E205C00DE203C00BE201C000E08C85D3
:100530008C7019F001115AC29BC297FE10C04C0C6E
:10054000FC85F4FF04C08A81813309F44A941414B1
:1005500074F528E0241578F588E0482E2CC096FC28
:100560002AC0812F90E08C159D059CF03CEFC316AE
:100570003FEFD30674F0892D8068982E0AC0E2E020
:10058000F0E0EC0FFD1FE10FF11D8081803319F4C5
:1005900011501111F4CF97FE0EC044244394410E24
:1005A000812F90E0C816D9062CF41C1904C04424ED
:1005B000439401C010E097FE06C01C141D0434F4DF
:1005C000C601019605C085E090E002C081E090E0A0
:1005D00001110196112331F0212F30E02F5F3F4FA1
:1005E000820F931F252D30E08217930714F4581AB9
:1005F00001C0512C892D897049F4552039F0B7017B
:1006000080E290E00E94AB065A94F7CF002329F0D5
:10061000B701802F90E00E94AB0693FC09C05520E3
:1006200039F0B70180E390E00E94AB065A94F7CF0F
:1006300097FE4CC04601D7FE02C0812C912CC6010A
:1006400088199909F301E80FF91FFE87ED879601D4
:1006500024193109388B2F87012F10E0119501954E
:1006600011093FEF8316930629F4B7018EE290E05B
:100670000E94AB06C814D9044CF08F859889881560
:10068000990524F4ED85FE85818101C080E3F1E0C8
:100690008F1A91082D853E852F5F3F4F3E872D870E
:1006A000801691062CF0B70190E00E94AB06D9CFDE
:1006B000C814D90441F49A81963320F4953319F47F
:1006C0003C8534FF81E3B70190E04EC08A818133DD
:1006D00019F09C859F7E9C87B70190E00E94AB0635
:1006E000111105C094FC18C085E690E017C0B70151
:1006F0008EE290E00E94AB061E5F82E001E0080FF0
:10070000F301E80FF11D8081B70190E00E94AB0674
:10071000802F0113F3CFE6CF85E490E0B7010E946C
:10072000AB06D7FC06C0C114D10441F4EC85E4FF4C
:1007300005C0D194C194D1088DE201C08BE2B7010C
:1007400090E00E94AB0680E32AE0C216D1042CF0B0
:100750008F5FFAE0CF1AD108F7CFB70190E00E947F
:10076000AB06B701C601C0960E94AB0654C18336E2
:1007700031F0833779F0833509F056C020C0560137
:1007800032E0A30EB11CF6018081898301E010E004
:10079000630112C05601F2E0AF0EB11CF601C08039
:1007A000D18096FE03C0612F70E002C06FEF7FEF33
:1007B000C6010E945D068C01F92DFF7714C0560119
:1007C00022E0A20EB11CF601C080D18096FE03C0CB
:1007D000612F70E002C06FEF7FEFC6010E945206EA
:1007E0008C01F92DF0689F2EF3FD1AC0852D90E045
:1007F00008171907A8F4B70180E290E00E94AB0641
:100800005A94F4CFF60197FC859197FE81916F0180
:10081000B70190E00E94AB0651105A9401501109A3
:100820000115110579F7F7C0843611F0893661F5A5
:10083000560197FE09C024E0A20EB11CF6016081AA
:100840007181828193810AC0F2E0AF0EB11CF60182
:1008500060817181072E000C880B990BF92DFF76B2
:100860009F2E97FF09C090958095709561957F4F59
:100870008F4F9F4FF0689F2E2AE030E0A3010E9427
:100880004307C82EC6183FC0092D853721F40F7EB7
:100890002AE030E01DC0097F8F3691F018F48835CA
:1008A00059F0C3C0803719F0883711F0BEC000611D
:1008B00004FF09C0046007C094FE08C0066006C0BB
:1008C00028E030E005C020E130E002C020E132E065
:1008D000560107FF09C084E0A80EB11CF601608133
:1008E00071818281938108C0F2E0AF0EB11CF601E4
:1008F0006081718180E090E0A3010E944307C82ECF
:10090000C6180F77902E96FE0BC0092D0E7FC116CC
:1009100050F494FE0AC092FC08C0092D0E7E05C05A
:10092000DC2C092D03C0DC2C01C0D12E04FF0DC02E
:10093000FE01EC0DF11D8081803311F4097E09C0A8
:1009400002FF06C0D394D39404C0802F867809F0A8
:10095000D39403FD11C000FF06C01C2DD51480F4F4
:10096000150D1D190DC0D51458F4B70180E290E0A3
:100970000E94AB06D394F7CFD51410F45D1801C0D4
:10098000512C04FF10C0B70180E390E00E94AB0639
:1009900002FF17C001FD03C088E790E002C088E5B0
:1009A00090E0B7010CC0802F867859F001FF02C09B
:1009B0008BE201C080E207FD8DE2B70190E00E946A
:1009C000AB06C11638F4B70180E390E00E94AB0695
:1009D0001150F7CFCA94F301EC0DF11D8081B701DE
:1009E00090E00E94AB06C110F5CF15C0F4E0F515FC
:1009F00060F584E0581A93FE1FC0011127C02C85B2
:100A000023FF2AC004E510E0392D3071932EF80140
:100A10008491811124C0552009F4E4CCB70180E20F
:100A200090E00E94AB065A94F6CFF7018681978139
:100A300026C08FEF9FEF23C0B70180E290E00E94B5
:100A4000AB065A945110F8CFD8CF512CB701802F54
:100A500090E00E94AB06D3CF08E510E0D5CF91100F
:100A60008052B70190E00E94AB060F5F1F4FCFCFBF
:100A700023E0251510F483E0BDCF512CC0CF609644
:100A8000E2E10C945F052F923F924F925F926F923A
:100A90007F928F929F92AF92BF92CF92DF92EF920E
:100AA000FF920F931F93CF93DF93CDB7DEB7CA1B8F
:100AB000DB0B0FB6F894DEBF0FBECDBF09942A88BA
:100AC000398848885F846E847D848C849B84AA8462
:100AD000B984C884DF80EE80FD800C811B81AA81EF
:100AE000B981CE0FD11D0FB6F894DEBF0FBECDBFBA
:100AF000ED010895283008F027E03327DA01990F37
:100B0000311D87FD916000966105710539F43260F1
:100B10002E5F3D9330E32A95E1F708959F3F30F033
:100B200080387105610509F03C5F3C5F3D93913071
:100B300008F08068911DDF93CF931F930F93FF926E
:100B4000EF92192F987F9695E92F96959695E90F34
:100B5000FF27EA54FF4F99273327EE24FF24A701EC
:100B6000E70105900894079428F4360FE71EF81E55
:100B7000491F511D660F771F881F991F0694A1F703
:100B80000590079428F4E70EF81E491F561FC11D53
:100B9000770F881F991F661F0694A1F70590079489
:100BA00028F4F80E491F561FC71FD11D880F991F23
:100BB000661F771F0694A1F70590079420F4490F4C
:100BC000561FC71FD81F990F661F771F881F0694CF
:100BD000A9F784911095177041F0D695C795579550
:100BE0004795F794E7941A95C1F7ECE5F0E068941F
:100BF0001590159135916591959105907FE27395CA
:100C0000E118F10A430B560BC90BD009C0F7E10CF0
:100C1000F11E431F561FC91FD01D7EF4703311F4FF
:100C20008A95E6CFE894015030F0080F0AF40027C7
:100C3000021708F4202F2395022F7A3328F079E346
:100C40007D932A95E9F710C07D932A9589F606943D
:100C500097956795379517951794E118F10A430B07
:100C6000560BC90BD00998F023957E9173957A3372
:100C700008F070E37C932013B8F77E9170617D9348
:100C800030F0839571E37D9370E32A95E1F71124A9
:100C9000EF90FF900F911F91CF91DF91992787FDE2
:100CA00090950895FC010590615070400110D8F7AF
:100CB000809590958E0F9F1F0895FC0161507040A4
:100CC00001900110D8F7809590958E0F9F1F089581
:100CD000FC0193819F7C93830895CF93DF93EC0174
:100CE0002B8120FF33C026FF0AC02F7B2B838E81F0
:100CF0009F8101969F838E838A8190E029C022FF85
:100D00000FC0E881F9818081082E000C990B0097B3
:100D100019F420622B831AC03196F983E8830EC040
:100D2000EA85FB85099597FF09C02B81019611F093
:100D300080E201C080E1822B8B8308C02E813F813D
:100D40002F5F3F4F3F832E83992702C08FEF9FEF86
:100D5000DF91CF9108950F931F93CF93DF93FB0102
:100D6000238121FD03C08FEF9FEF2CC022FF16C00F
:100D700046815781248135814217530744F4A0816D
:100D8000B1819D012F5F3F4F318320838C9326815A
:100D900037812F5F3F4F3783268314C08B01EC01CF
:100DA000FB010084F185E02D0995892BE1F6D8013E
:100DB00016968D919C911797019617969C938E93FA
:100DC0001697CE01DF91CF911F910F910895A0E06A
:100DD000B0E0EDEEF6E00C945305AE014B5F5F4FD3
:100DE000FA0161917191AF018091340190913501C7
:100DF0000E94C601E2E00C946F050F931F93CF93FE
:100E0000DF93E0913401F0913501238121FF1BC074
:100E10008C01D0E0C0E0F80181918F016091340134
:100E200070913501DB011896ED91FC91199788239B
:100E300031F00995892B79F3DFEFCFEFECCF8AE022
:100E40000995892B19F08FEF9FEF02C08D2F9C2FF2
:100E5000DF91CF911F910F910895A0E0B0E0E3E3FF
:100E6000F7E00C945305AE014B5F5F4FFA016191BF
:100E70007191AF0180913201909133010E943D093F
:100E8000E2E00C946F05FA01AA27283051F12031D5
:100E900081F1E8946F936E7F6E5F7F4F8F4F9F4F0E
:100EA000AF4FB1E03ED0B4E03CD0670F781F891F50
:100EB0009A1FA11D680F791F8A1F911DA11D6A0F1E
:100EC000711D811D911DA11D20D009F468943F91D1
:100ED0002AE0269F11243019305D3193DEF6CF01D0
:100EE0000895462F4770405D4193B3E00FD0C9F796
:100EF000F6CF462F4F70405D4A3318F0495D31FD03
:100F00004052419302D0A9F7EACFB4E0A695979555
:100F1000879577956795BA95C9F70097610571052B
:100F200008959B01AC010A2E069457954795379575
:100F30002795BA95C9F7620F731F841F951FA01DCF
:100F4000089520FD09C0FC0123FD05C022FF02C059
:100F50007383628351834083089544FD17C046FD27
:100F600017C0AB01BC01DA01FB01AA0FBB1FEE1FCA
:100F7000FF1F1094D1F74A0F5B1F6E1F7F1FCB011D
:100F8000BA01660F771F881F991F09C033E001C09F
:100F900034E0660F771F881F991F3150D1F7620F19
:100FA000711D811D911D08950F931F93CF93DF93A2
:100FB0008C01C8010E946D06EC0197FD08C00E94DB
:100FC0004E0A892BB1F7B801CE010E94620ACE0108
:100FD000DF91CF911F910F9108958F929F92AF92C1
:100FE000BF92EF92FF920F931F93CF93DF938C01E9
:100FF000D62F7A01B22E0E946D069C0133272B3228
:10100000310531F02D32310561F48B2D8068B82E19
:10101000D15011F480E068C0C8010E946D0697FDB0
:10102000F9CFCB2DCD7F2B2D207309F58033F9F42B
:10103000AA24AA94AD0E09F443C0C8010E946D060B
:1010400097FD3EC09C012F7D33272835310549F49B
:10105000C264D250A9F1C8010E946D0697FF07C073
:101060002FC0B6FE02C0C26001C0C261DA2D812C61
:10107000912C540120ED280F283080F0C4FF04C0CB
:10108000B8010E94620A19C02A3040F0C6FFF8CFAA
:101090002F7D3FEE320F363098F727504C2FC50189
:1010A000B4010E94AD074B015C01C260D15059F000
:1010B000C8010E946D0697FFDDCFC1FD04C0AACF15
:1010C000812C912C5401C7FF08C0B094A094909437
:1010D0008094811C911CA11CB11C2C2FB501A40172
:1010E000C7010E94A10781E0DF91CF911F910F916D
:1010F000FF90EF90BF90AF909F908F900895A0E2E7
:10110000B0E0E5E8F8E00C9446055C01962E7A0123
:10111000F9018E010F5F1F4F680180E2D8011D9217
:101120008A95E9F7D50113968C9080E090E0612CC8
:10113000712C30E061E070E083FC259183FE219109
:101140008F01522E211103C080E090E092C02E3515
:1011500011F4009751F1432F50E0481759073CF420
:101160002D3559F12D3219F4772009F103C077207C
:1011700009F46AC0452D469546954695D601A40FBB
:10118000B11D452D47708B0102C0000F111F4A95FC
:10119000E2F7A8015C91452B4C93651459F0561465
:1011A00010F45394E7CF5A94E5CF31E004C077248C
:1011B000739401C0712C0196BFCF772019F08E81F6
:1011C00080628E83311103C08824839417C0F60196
:1011D0009E012F5D3F4F8081809581932E173F07A1
:1011E000D1F7F2CFE114F10429F0D7018C93F70184
:1011F00031967F019A94812C9920F9F0C5010E94C3
:101200006D0697FD18C0FC01FF2723E0F595E795D3
:101210002A95E1F7EC0DFD1D208130E0AC0147700F
:10122000552702C0359527954A95E2F720FDDACF7C
:10123000B5010E94620A811087CFE114F10411F018
:10124000D7011C92C80115C0422F46954695469578
:10125000D601A40FB11D422F47708B0102C0000FB1
:10126000111F4A95E2F7A8015C91452B4C93622E21
:10127000A2CFA096EFE00C946205A0E0B0E0E3E41A
:10128000F9E00C9446056C01EB015A01FC01178250
:101290001682512CF601E380FE01E3FC8591E3FE0A
:1012A0008191182FEF01882309F4EEC090E00E948D
:1012B0004E0A892B21F0C6010E94D407EBCF1532CC
:1012C00041F4FE01E3FC1591E3FE1191EF011532AB
:1012D00081F4C6010E946D0697FDD4C0412F50E0F5
:1012E0009C01332724173507A9F2B6010E94620A30
:1012F000CBC01A3239F4E3FC1591E3FE1191EF01F2
:1013000001E001C000E0F12C20ED210F2A3080F433
:1013100002606F2D70E080E090E040E20E94AD0737
:10132000F62EFE01E3FC1591E3FE1191EF01ECCFE7
:1013300001FF03C0F11003C0A7C0FF24FA941836C0
:1013400019F01C3651F010C0FE01E3FC1591E3FECC
:101350001191EF01183641F408600460FE01E3FCCE
:101360001591E3FE1191EF01112309F48DC0612F56
:1013700070E086E591E00E94570A892B09F484C049
:1013800000FD07C0F50180809180C50102965C01D7
:1013900002C0812C912C1E3651F4F60146815781F2
:1013A00060E070E0202FC4010E94A10773CF1336C4
:1013B000A9F401FD02C0FF24F394C6010E946D064A
:1013C00097FD60C08114910429F0F4018083C40169
:1013D00001964C01FA94F110F0CF50C01B3559F42E
:1013E0009E01A4016F2DC6010E947F08EC01892B8C
:1013F00009F044C03EC0C6010E94D40797FD42C018
:101400001F3661F128F4143639F1193651F128C02C
:10141000133771F0153701F123C08114910429F0BD
:10142000F4016082C40101964C01FA94FF2071F02E
:10143000C6010E946D063C0197FD08C00E944E0A3D
:10144000892B59F3B601C3010E94620A81149104E9
:10145000A9F0F401108212C0006203C0006101C053
:101460000064202FA4016F2DC6010E94ED07811199
:1014700005C0F6018381807329F406C000FD0ACF00
:10148000539408CF552019F0852D90E002C08FEFBE
:101490009FEFCDB7DEB7EFE00C94620591110C948D
:1014A0007B0A803219F089508550C8F70895FC01F5
:1014B0000590061621F00020D9F7C0010895319754
:1014C000CF010895FB01238120FF12C026FD10C02B
:1014D0008F3F3FEF930761F082832F7D206423834A
:1014E0002681378121503109378326839927089532
:1014F0008FEF9FEF0895992788270895F894FFCFDD
:10150000546573740000000003000000008401941F
:1015100001000048656C6C6F2C20776F726C642141
:10152000005661726961626C6573202D3E202564EE
:101530002C2025632C2025730A0056617269616294
:101540006C6520793A2025660A0A00506C65617343
:101550006520656E7465722061206E756D626572BE
:101560003A2000253375000A0A54686520726573B5
:10157000756C74206F66202575202A2035206571D2
:1015800075616C733A2025750A0A000A496E7075F8
:1015900074206572726F72210A00506C6561736508
:1015A00020696E73657274203130206368617261E6
:1015B00063746572733A200025313073000A0A495A
:1015C0006E70757420726573756C743A2025730A99
:0215D0000A000F
:00000001FF
