:100000000C942A000C943F000C943F000C943F0089
:100010000C943F000C943F000C943F000C943F0064
:100020000C943F000C943F000C943F000C943F0054
:100030000C943F000C943F000C943F000C943F0044
:100040000C943F000C943F000C943F000C943F0034
:100050000C943F0011241FBECFE5D4E0DEBFCDBF1E
:1000600010E0A0E6B0E0E8E0F5E002C005900D92F7
:10007000AC39B107D9F70E946F010C9482020C943D
:100080000000DC9A84E18A95F1F7DC9884E18A9596
:10009000F1F7089598B39B7198BB88230CF4C79A25
:1000A00086FDC69A85FDC59A84FDC29A0E944100CC
:1000B0000895CF93C82FDE980E944A008C2F829516
:1000C000807F0E944A0084E98A95F1F7CF910895D4
:1000D000CF93C82FDE9A0E944A008C2F8295807F92
:1000E0000E944A0084E98A95F1F7CF910895CF9351
:1000F000DF93EC018881882331F021960E9468000B
:1001000089918111FBCFDF91CF91089581E00E9409
:1001100059008FE697E10197F1F700C000000895BC
:100120008AB380658ABB87B3846E87BB8BB38F7AB3
:100130008BBB88B38B7188BB8FE295E70197F1F792
:1001400000C0000080E20E944A0094E99A95F1F70D
:1001500088E20E9459008CE00E94590086E00E94CB
:1001600059000E948600089582E00E9459008FE69F
:1001700097E10197F1F700C000000895613051F058
:1001800028F0623059F0633069F0089580580E9479
:100190005900089580540E945900089580570E9484
:1001A0005900089580530E9459000895811104C098
:1001B0008CE10E94590003C088E10E94590084E943
:1001C0008A95F1F708950F931F93CF93DF938830AB
:1001D00098F48B01880F880F880F805C0E9459006B
:1001E000E801085F1F4F89910E946800C017D1077E
:1001F000D1F780E80E945900DF91CF911F910F91B4
:100200000895EF92FF920F931F93CF93DF93CDB793
:10021000DEB7A1970FB6F894DEBF0FBECDBF423058
:1002200009F446C04A3019F0403109F04BC03FEFA5
:10023000320F3A3008F046C0E42FF0E0E22E042FEF
:100240009F01AE014F5F5F4F0E9445028981882365
:10025000B1F1FE01329681E09191992319F08F5FFF
:100260008132D1F78E15C8F401C080E0F12CE81A74
:10027000F1081E141F04BCF410E00A3021F080E3E2
:100280000E94680003C080E20E9468001F5F812F07
:1002900090E08E159F058CF306C0E81620F4FE0151
:1002A000EE0DF11D1182CE0101960E9477000AC069
:1002B0003FEF320F3A3030F4E2E0F0E0BFCFE11030
:1002C000D4CFF1CFA1960FB6F894DEBF0FBECDBF4D
:1002D000DF91CF911F910F91FF90EF900895CF93F1
:1002E000DF93CDB7DEB7E8970FB6F894DEBF0FBE49
:1002F000CDBF8AB3807F8ABB8FE08BBB88E0E0E60E
:10030000F0E0DE01119601900D928A95E1F788E008
:10031000E8E6F0E0DE01199601900D928A95E1F78A
:1003200088E0E0E7F0E0DE01519601900D928A95B9
:10033000E1F788E0E8E7F0E0DE01599601900D92E0
:100340008A95E1F788E0E0E8F0E0DE01919601901F
:100350000D928A95E1F788E0E8E8F0E0DE019996F1
:1003600001900D928A95E1F788E0E0E9F0E0DE0186
:10037000D19601900D928A95E1F70E949000BE01FE
:100380006F5F7F4F80E00E94E300BE01675F7F4F99
:1003900081E00E94E300BE016F5E7F4F82E00E9419
:1003A000E300BE01675E7F4F83E00E94E300BE0171
:1003B0006F5D7F4F84E00E94E300BE01675D7F4F69
:1003C00085E00E94E300BE016F5C7F4F86E00E94E3
:1003D000E3000E94B4008EE40E94680088E990E087
:1003E0000E94770024E04AE06CE070E080E090E05A
:1003F0000E94010180E00E94680061E080E00E94AC
:10040000BE0081E00E94680082E00E94680083E0F4
:100410000E94680084E00E94680085E00E946800F5
:1004200083E00E94680086E00E94680086E00E94E7
:100430006800C89909C080E00E94D60087E99AE365
:100440000197F1F700C00000C89BFECF87E99AE34F
:100450000197F1F700C00000C999EBCF18EF1034F5
:1004600068F080E00E94D6009FE72FE482E191507F
:1004700020408040E1F700C0000003C080E00E94FF
:10048000D6001F5F183459F7D4CF2532310520F438
:10049000223010F00C945002FA011082CA01089523
:1004A000BB27FA01A62F6217710581059105330B51
:1004B00030FB66F0AA27660F771F881F991FAA1FB7
:1004C000A21710F0A21B63953850A9F7A05DAA33BC
:1004D00008F0A95DA19336F7B111B1931082CA015A
:1004E0000C947202DC01FC01672F71917723E1F714
:1004F000329704C07C916D9370836291AE17BF07F1
:08050000C8F30895F894FFCF41
:10050800040E0E0E1F0004001C1C1C1C1C1C1F1FAC
:100518000E0E0E0E0E0E0E0E1F1F181F1F181F1F79
:100528001E1F1B1F1F191F1E1B1B1B1F1F1B1B1BF7
:0C0538001E1F1B1B1F1E1E1B554D00002C
:00000001FF
