:100000000C942A000C943F000C943F000C943F0089
:100010000C943F000C943F000C943F000C943F0064
:100020000C943F000C943F000C943F000C943F0054
:100030000C943F000C943F000C943F000C943F0044
:100040000C943F000C943F000C943F000C943F0034
:100050000C943F0011241FBECFE5D4E0DEBFCDBF1E
:1000600010E0A0E6B0E0ECE9F3E002C005900D92EC
:10007000AC39B107D9F70E94F7000C94CC010C946D
:100080000000DC9A84E18A95F1F7DC9884E18A9596
:10009000F1F7089598B39B7198BB87FDC79A86FDC9
:1000A000C69A85FDC59A84FDC29A0C944100CF93EF
:1000B000C82FDE980E944A008C2F8295807F0E9474
:1000C0004A0084E98A95F1F7CF910895CF93C82F1C
:1000D000DE9A0E944A008C2F8295807F0E944A00FF
:1000E00084E98A95F1F7CF910895CF93DF93EC01DE
:1000F0008991882319F00E946600FACFDF91CF9191
:10010000089581E00E9457008FE697E10197F1F78B
:1001100000C0000008958AB380658ABB87B3846EEF
:1001200087BB8BB38F7A8BBB88B38B7188BB8FE215
:1001300095E70197F1F700C0000080E20E944A00B5
:1001400094E99A95F1F788E20E9457008FE00E94A7
:10015000570086E00E9457000C94810082E00E94C4
:1001600057008FE697E10197F1F700C0000008956E
:10017000613041F028F0623039F0633039F0089591
:10018000805805C0805403C0805701C080530C9430
:100190005700811102C08CE101C088E10E94570024
:1001A00084E98A95F1F708950F931F93CF93DF9316
:1001B0008830B8F48B01880F880F880F805C0E940C
:1001C0005700E801085F1F4F89910E946600C01721
:1001D000D107D1F780E8DF91CF911F910F910C9457
:1001E0005700DF91CF911F910F9108950895CF93FC
:1001F000DF93CDB7DEB7E8970FB6F894DEBF0FBE3A
:10020000CDBF8AB3807F8ABB8FE08BBB88E0E0E6FE
:10021000F0E0DE01D19601900D928A95E1F788E039
:10022000E8E6F0E0DE01999601900D928A95E1F7FB
:1002300088E0E0E7F0E0DE01919601900D928A956A
:10024000E1F788E0E8E7F0E0DE01599601900D92D1
:100250008A95E1F788E0E0E8F0E0DE015196019050
:100260000D928A95E1F788E0E8E8F0E0DE01199662
:1002700001900D928A95E1F788E0E0E9F0E0DE0177
:10028000119601900D928A95E1F70E948B00BE01B4
:100290006F5C7F4F80E00E94D400BE01675D7F4F9E
:1002A00081E00E94D400BE016F5D7F4F82E00E941A
:1002B000D400BE01675E7F4F83E00E94D400BE0180
:1002C0006F5E7F4F84E00E94D400BE01675F7F4F66
:1002D00085E00E94D400BE016F5F7F4F86E00E94E0
:1002E000D4000E94AE008EE40E94660088E990E08F
:1002F0000E94750024E04AE06CE070E080E090E04D
:100300000E94F60080E00E94660061E080E00E94AA
:10031000B80081E00E94660082E00E94660083E0EF
:100320000E94660084E00E94660085E00E946600EC
:1003300083E00E94660086E00E94660086E00E94DC
:100340006600C89909C080E00E94C90087E99AE365
:100350000197F1F700C00000C89BFECF87E99AE340
:100360000197F1F700C00000C999EBCF18EF80E0CA
:10037000103460F00E94C9009FE72FE482E19150A1
:1003800020408040E1F700C0000002C00E94C90088
:0C0390001F5F183461F7D5CFF894FFCF41
:10039C00040E0E0E1F0004001C1C1C1C1C1C1F1F1A
:1003AC000E0E0E0E0E0E0E0E1F1F181F1F181F1FE7
:1003BC001E1F1B1F1F191F1E1B1B1B1F1F1B1B1B65
:0C03CC001E1F1B1B1F1E1E1B554D00009A
:00000001FF
