:100000000C942A000C9434000C9434000C943400AA
:100010000C9434000C9434000C9434000C94340090
:100020000C9434000C9434000C9434000C94340080
:100030000C9434000C9434000C9434000C94340070
:100040000C9434000C9434000C9434000C94340060
:100050000C94340011241FBECFE5D4E0DEBFCDBF29
:100060000E9436000C9446000C9400008FEF84BB75
:1000700015BA8AB3807F8ABB8BB38F608BBB8FEF3F
:10008000C89B88BBC899FCCF18BAFACFF894FFCFA9
:00000001FF
